:020000040800F2
:1000000000500020F1180008ED170008F317000851
:10001000F9170008FF170008051800080000000085
:100020000000000000000000000000000B180008A5
:100030001718000800000000231800082F180008F7
:100040003919000839190008391900083919000848
:100050003919000839190008391900083919000838
:100060003919000839190008391900083919000828
:100070003919000839190008391900083919000818
:100080003919000839190008391900083919000808
:1000900039190008391900083919000839190008F8
:1000A00039190008391900083919000839190008E8
:1000B0003D180008511800083919000839190008BE
:1000C00039190008391900083919000839190008C8
:1000D000391900083919000865180008391900088D
:1000E0003919000839190008391900080000000002
:1000F0000000000000000000000000000000000000
:0C01000000000000000000005FF808F1A3
:10010C0010B5054C237833B9044B13B10448AFF345
:10011C0000800123237010BD180100200000000096
:10012C005048000808B5034B1BB103490348AFF313
:10013C00008008BD000000001C0100205048000891
:10014C0080B483B000AF7860094A7B6852F82330E2
:10015C00012B06D1064A7B68002142F823100123AB
:10016C0000E0002318460C37BD4680BC704700BF2A
:10017C003401002080B582B000AF00237B606AE0C0
:10018C00394A7B6852F8232038497B6841F8232090
:10019C00374A7B6852F8232033497B6841F8232087
:1001AC00344A7B6852F8232033497B6831F813308A
:1001BC001946104601F060FF034619462C4A7B682D
:1001CC0042F82310284A7B6852F8232027497B6881
:1001DC0051F823309A423BD1234A7B6852F82320B2
:1001EC0023497B6851F823309A4231D1234A7B68EA
:1001FC0052F823201E497B6851F823309A4213D0C1
:10020C001B4A7B6852F823201C497B6841F8232049
:10021C00174A7B6852F82330002B19D1184A7B6897
:10022C00012142F8231013E0164A7B6852F8233060
:10023C005A1E14497B6841F82320124A7B6852F8F5
:10024C002330002B04D10D4A7B68012142F8231086
:10025C007B6801337B607B68032B91DD00BF00BFA3
:10026C000837BD4680BD00BF1000002000000020F4
:10027C00200000204800002040000020300000201A
:10028C00340100208000002080B582B000AF78607F
:10029C007B68202B2BD07B68202B39DC7B681E2BBA
:1002AC0003D07B681F2B11D032E0244B1B69244AEE
:1002BC0011890122184601F0F6FE204B5B69204A99
:1002CC0051890022184601F0EEFE32E01B4B1B69EF
:1002DC001B4A11890122184601F0E5FE174B5B6998
:1002EC00174A51890122184601F0DDFE21E0134B1B
:1002FC001B69134A11890022184601F0D4FE0F4BDA
:10030C005B690F4A51890122184601F0CCFE10E0BE
:10031C000A4B1B690A4A11890022184601F0C3FED8
:10032C00064B5B69064A51890022184601F0BBFE58
:10033C0000BF00BF0837BD4680BD00BF6400002071
:10034C005800002080B582B000AF78607B68202B0D
:10035C002BD07B68202B39DC7B681E2B03D07B6871
:10036C001F2B11D032E01C4B1B681C4A1188012238
:10037C00184601F098FE184B5B68184A5188002209
:10038C00184601F090FE22E0134B1B68134A1188AB
:10039C000122184601F087FE0F4B5B680F4A51880B
:1003AC000122184601F07FFE11E00B4B1B680B4A33
:1003BC0011880022184601F076FE074B5B68074A4D
:1003CC0051880122184601F06EFE00E000BF00BF0C
:1003DC000837BD4680BD00BF6400002058000020D7
:1003EC0080B582B000AF78607B68202B2BD07B6807
:1003FC00202B39DC7B681E2B03D07B681F2B11D084
:10040C0032E01C4B9B681C4A91880122184601F073
:10041C004AFE184BDB68184AD1880022184601F0B6
:10042C0042FE22E0134B9B68134A91880122184626
:10043C0001F039FE0F4BDB680F4AD18801221846B8
:10044C0001F031FE11E00B4B9B680B4A91880022A6
:10045C00184601F028FE074BDB68074AD1880122B9
:10046C00184601F020FE00E000BF00BF0837BD4673
:10047C0080BD00BF640000205800002080B582B011
:10048C0000AF786039603B681E2B0BD17B68194A32
:10049C0082FB03125211DB17D31A1A46164917485E
:1004AC0003F096FD3B68202B0BD17B68114A82FB35
:1004BC0003125211DB17D31A1A4611490F4803F0D5
:1004CC0087FD3B681F2B0BD17B680A4A82FB03120A
:1004DC005211DB17D31A1A460A49084803F078FD63
:1004EC0032220649084803F056F900BF0837BD46CA
:1004FC0080BD00BF1F85EB5168480008CC0100206F
:10050C0074480008804800088401002080B500AFC2
:10051C00AE4B1B680A3B062B00F2318201A252F84B
:10052C0023F000BF4D0500088B0900088B0900085B
:10053C009505000867060008850700089F08000855
:10054C001E20FFF7FFFE2020FFF74AFF6421042046
:10055C0001F008F89E4B1B689E4A13609C4B1B686D
:10056C001E211846FFF78AFF994B1B68194600207D
:10057C0000F0F8FF984B1B681946012000F0F2FFC1
:10058C00924B0D221A6003E2944B1B69012B0ED186
:10059C00904B1B68643B8F4A13608E4B1B681E216B
:1005AC001846FFF76BFF6421042000F0DBFF8B4B38
:1005BC00DB68012B06D1894B9B68012B02D1884B40
:1005CC0000221A60864B1B68012B03D12020FFF7F9
:1005DC005BFE02E00020FFF757FE804B5B68012BAF
:1005EC000CD1804B1B681946012000F0BBFF642125
:1005FC00042000F0B7FF754B0E221A600020FFF7A5
:10060C009FFD0346012B08D1754B01221A60764BD6
:10061C001B681946022000F0A5FF0220FFF790FD91
:10062C000346012B05D1694B0B221A600020FFF702
:10063C002BFE0320FFF784FD0346012B40F0A18124
:10064C00624B0C221A60694B1B681946052000F09E
:10065C0089FF0020FFF718FE93E1604B1B69012B0B
:10066C0016D15C4B1B68643B5A4A1360594B1B6890
:10067C00002B03D1584B1B68564A1360554B1B6813
:10068C001E211846FFF7FAFE6421042000F06AFFD1
:10069C001E20FFF757FE1F20FFF7A2FE4F4B9B6853
:1006AC00012B02D14E4B00221A604D4B1B68012BC3
:1006BC0003D11F20FFF7E8FD02E00020FFF7E4FD67
:1006CC00464B1B68012B22D1444B5B68012B1ED17E
:1006DC002020FFF737FE1E20FFF782FE3E4B1B68E3
:1006EC001946002000F03EFF394B1B6819460120CB
:1006FC0000F038FF384B1B6820211846FFF7BEFE70
:10070C006421042000F02EFF304B0F221A600020D1
:10071C00FFF716FD0346012B08D1314B01221A605D
:10072C00314B1B681946022000F01CFF0220FFF71A
:10073C0007FD0346012B0BD1244B0B221A60002022
:10074C00FFF7A2FD2A4B1B681946002000F00AFF98
:10075C000320FFF7F5FC0346012B40F014811B4BE3
:10076C000C221A60214B1B681946052000F0FAFE7A
:10077C000020FFF789FD06E1184B1B69012B16D1F0
:10078C00144B1B68643B134A1360124B1B68002B01
:10079C0003D1144B1B680F4A13600E4B1B682021AE
:1007AC001846FFF76BFE6421042000F0DBFE0B4BB8
:1007BC009B68012B02D10A4B00221A60084B1B6864
:1007CC00012B17D11E20FFF75FFD16E07C000020E7
:1007DC0090000020C8010020980000204801002053
:1007EC0044010020940000209C000020A400002064
:1007FC00A00000200020FFF747FD664B1B68012B73
:10080C0012D1654B1B681946002000F0ABFE624B01
:10081C001B681F211846FFF731FE6421042000F0ED
:10082C00A1FE5E4B10221A600020FFF789FC0346E4
:10083C00012B08D15A4B01221A605A4B1B681946DE
:10084C00022000F08FFE0220FFF77AFC0346012BFA
:10085C000BD1524B0B221A600020FFF715FD524BA7
:10086C001B681946002000F07DFE0320FFF768FC92
:10087C000346012B40F08980484B0C221A604B4BED
:10088C001B681946052000F06DFE0020FFF7FCFCEC
:10089C007BE0404B1B69012B16D1454B1B68643B1D
:1008AC00434A1360424B1B68002B03D1414B1B681E
:1008BC003F4A13603E4B1B681F211846FFF7DEFDB5
:1008CC006421042000F04EFE1F20FFF73BFD1E208C
:1008DC00FFF786FD2F4B9B68012B02D1304B00227A
:1008EC001A602F4B1B68012B03D11E20FFF7CCFC89
:1008FC0002E00020FFF7C8FC264B1B68012B0AD135
:10090C00244B5B68012B06D1244B0A221A6064210C
:10091C00042000F027FE0020FFF712FC0346012BF9
:10092C0008D11F4B01221A601E4B1B68194602206E
:10093C0000F018FE0220FFF703FC0346012B0BD13D
:10094C00164B0B221A600020FFF79EFC164B1B68FF
:10095C001946002000F006FE0320FFF7F1FB0346CA
:10096C00012B14D10D4B0C221A60104B1B6819462D
:10097C00052000F0F7FD0020FFF786FC07E000BF24
:10098C0006E000BF04E000BF02E000BF00E000BFD3
:10099C0000BF80BD48010020940000207C00002096
:1009AC00440100209C000020A0000020A400002096
:1009BC00C80100209000002080B500AFBA4B1B6826
:1009CC000B3B0E2B00F27E8201A252F823F000BFEB
:1009DC00190A0008D10E0008D10E0008D10E00082B
:1009EC00D10E0008D10E0008210A0008A50A000843
:1009FC00290B0008310C0008C50C0008AD0B0008D1
:100A0C00490D0008CD0D00084F0E0008A64B112211
:100A1C001A606AE2A54B1B68012B05D00220FFF778
:100A2C008FFB0346012B02D19F4B0A221A601E201A
:100A3C00FFF788FC1E20FFF7D3FC0020FFF780FB9C
:100A4C000346012B08D1984B12221A60984B1B6855
:100A5C001946002000F086FD0120FFF771FB0346CC
:100A6C00012B08D1904B16221A60914B1B6819462A
:100A7C00002000F077FD0320FFF762FB0346012BFB
:100A8C0040F02282884B0C221A608A4B1B68194654
:100A9C00052000F067FD17E2844B1B68012B05D085
:100AAC000220FFF74DFB0346012B02D17E4B0A229D
:100ABC001A602020FFF746FC1E20FFF791FC002057
:100ACC00FFF73EFB0346012B08D1774B13221A602C
:100ADC00774B1B681946002000F044FD0120FFF7FE
:100AEC002FFB0346012B08D16F4B14221A60704B5D
:100AFC001B681946002000F035FD0320FFF720FB92
:100B0C000346012B40F0E281674B0C221A60694BC3
:100B1C001B681946052000F025FDD7E1634B1B68C7
:100B2C00012B05D00220FFF70BFB0346012B02D152
:100B3C005D4B0A221A601F20FFF704FC1E20FFF7F2
:100B4C004FFC0020FFF7FCFA0346012B08D1564B53
:100B5C0011221A60564B1B681946002000F002FD4A
:100B6C000120FFF7EDFA0346012B08D14E4B15225D
:100B7C001A604F4B1B681946002000F0F3FC032051
:100B8C00FFF7DEFA0346012B40F0A281464B0C2204
:100B9C001A60484B1B681946052000F0E3FC97E1EE
:100BAC00424B1B68012B05D00220FFF7C9FA034604
:100BBC00012B02D13C4B0A221A601E20FFF7C2FB0C
:100BCC002020FFF70DFC0020FFF7BAFA0346012B9B
:100BDC0008D1354B14221A60354B1B68194600207E
:100BEC0000F0C0FC0120FFF7ABFA0346012B08D143
:100BFC002D4B18221A602E4B1B681946002000F052
:100C0C00B1FC0320FFF79CFA0346012B40F06281F4
:100C1C00254B0C221A60274B1B681946052000F047
:100C2C00A1FC57E1214B1B68012B05D00220FFF7DB
:100C3C0087FA0346012B02D11B4B0A221A60202093
:100C4C00FFF780FB2020FFF7CBFB0020FFF778FAA3
:100C5C000346012B08D1144B15221A60144B1B6848
:100C6C001946002000F07EFC0120FFF769FA0346CC
:100C7C00012B08D10C4B19221A600D4B1B6819461D
:100C8C00002000F06FFC0320FFF75AFA0346012BFB
:100C9C0040F02281044B0C221A60064B1B6819464B
:100CAC00052000F05FFC17E17C00002048010020CB
:100CBC00A0000020A40000208D4B1B68012B05D048
:100CCC000220FFF73DFA0346012B02D1894B0A2281
:100CDC001A601F20FFF736FB2020FFF781FB002056
:100CEC00FFF72EFA0346012B08D1824B16221A600D
:100CFC00814B1B681946002000F034FC0120FFF7E3
:100D0C001FFA0346012B08D17A4B17221A607A4B33
:100D1C001B681946002000F025FC0320FFF710FA91
:100D2C000346012B40F0DA80724B0C221A60734B95
:100D3C001B681946052000F015FCCFE06C4B1B68B6
:100D4C00012B05D00220FFF7FBF90346012B02D142
:100D5C00684B0A221A601F20FFF7F4FA1F20FFF7D6
:100D6C003FFB0020FFF7ECF90346012B08D1614B48
:100D7C0018221A60604B1B681946002000F0F2FB29
:100D8C000120FFF7DDF90346012B08D1594B132243
:100D9C001A60594B1B681946002000F0E3FB032036
:100DAC00FFF7CEF90346012B40F09A80514B0C22F1
:100DBC001A60524B1B681946052000F0D3FB8FE0DC
:100DCC004B4B1B68012B05D00220FFF7B9F90346EA
:100DDC00012B02D1474B0A221A601E20FFF7B2FAF0
:100DEC001F20FFF7FDFA0020FFF7AAF90346012B9D
:100DFC0008D1404B19221A603F4B1B681946002042
:100E0C0000F0B0FB0120FFF79BF90346012B08D142
:100E1C00384B11221A60384B1B681946002000F021
:100E2C00A1FB0320FFF78CF90346012B5AD1314B60
:100E3C000C221A60314B1B681946052000F092FBFE
:100E4C0050E02B4B1B68012B05D00220FFF778F9E3
:100E5C000346012B02D1274B0A221A602020FFF7F0
:100E6C0071FA1F20FFF7BCFA0020FFF769F903465F
:100E7C00012B08D11F4B17221A601F4B1B681946F8
:100E8C00002000F06FFB0120FFF75AF90346012BFD
:100E9C0008D1184B12221A60174B1B6819460020F8
:100EAC0000F060FB0320FFF74BF90346012B1BD12D
:100EBC00104B0C221A60114B1B681946052000F0D0
:100ECC0051FB11E000BF10E000BF0EE000BF0CE0D2
:100EDC0000BF0AE000BF08E000BF06E000BF04E06E
:100EEC0000BF02E000BF00E000BF00BF80BD00BF3C
:100EFC00480100207C000020A0000020A40000205D
:100F0C0080B500AFA44B1B680C3B102B00F23A8150
:100F1C0001A252F823F000BF690F000891110008DC
:100F2C00911100089111000891110008911100080D
:100F3C0091110008911100089111000891110008FD
:100F4C0091110008911100089111000891110008ED
:100F5C007D0F00082D100008E31000081E20FFF77D
:100F6C00F1F91E20FFF73CFA8B4B1A221A6010E1A4
:100F7C001E20FFF7E7F91E20FFF732FA0020FFF7DB
:100F8C00DFF80346012B13D1844B1B686433834A6F
:100F9C001360824B1B6842F20F72934202DD7F4B4F
:100FAC0064221A607D4B1B681E211846FFF766FAF7
:100FBC000120FFF7C5F80346012B13D1774B1B68B3
:100FCC00643B764A1360754B1B686333C62B03D89E
:100FDC00724B42F2AC621A60704B1B681E211846B1
:100FEC00FFF74CFA0220FFF7ABF80346012B03D0B6
:100FFC006B4B5B69012B02D1674B0A221A600320F1
:10100C00FFF79EF80346012B40F0BE80624B1B227B
:10101C001A60644B1B681946052000F0A3FAB3E074
:10102C002020FFF78FF92020FFF7DAF90020FFF7D7
:10103C0087F80346012B13D15B4B1B6864335A4A68
:10104C001360594B1B6842F20F72934202DD564BF0
:10105C0064221A60544B1B6820211846FFF70EFAC5
:10106C000120FFF76DF80346012B13D14E4B1B6883
:10107C00643B4D4A13604C4B1B686333C62B03D83F
:10108C00494B42F2AC621A60474B1B682021184650
:10109C00FFF7F4F90220FFF753F80346012B07D0B2
:1010AC003F4B5B69012B03D03D4B5B69012B02D19C
:1010BC00394B0A221A600320FFF742F80346012B32
:1010CC0064D1354B1C221A60364B1B68194605201F
:1010DC0000F048FA5AE01F20FFF734F91F20FFF701
:1010EC007FF90020FFF72CF80346012B13D12F4B6F
:1010FC001B6864332D4A13602C4B1B6842F20F7231
:10110C00934202DD294B64221A60284B1B681F2175
:10111C001846FFF7B3F90120FFF712F80346012B2D
:10112C0013D1224B1B68643B204A13601F4B1B6876
:10113C006333C62B03D81D4B42F2AC621A601B4BB7
:10114C001B681F211846FFF799F90220FEF7F8FFDC
:10115C000346012B03D0124B5B69012B02D10E4BC2
:10116C000A221A600320FEF7EBFF0346012B0FD176
:10117C00094B1A221A600B4B1B681946052000F00C
:10118C00F1F905E000BF04E000BF02E000BF00E0A1
:10119C0000BF00BF80BD00BF7C000020900000207D
:1011AC0048010020A400002098000020940000209A
:1011BC0080B483B000AF786000BF0C37BD4680BCF4
:1011CC007047000080B500AF00F0B2FB00F01EF8D5
:1011DC0000F044F900F056F800F016F900F09EF813
:1011EC00084801F0E3FB084801F0E0FB0021064849
:1011FC0001F086FCFFF78AF9FFF7DEFBFFF780FEB4
:10120C00F8E700BF480200200002002080B590B033
:10121C0000AF07F1180328220021184602F0D0FE77
:10122C003B1D00221A605A609A60DA601A61022330
:10123C00BB610123BB621023FB6200237B6307F1BC
:10124C001803184600F048FF0346002B01D000F0AD
:10125C0084F90F237B600023BB600023FB60002319
:10126C003B6100237B613B1D0021184601F0B4F962
:10127C000346002B01D000F070F900BF4037BD468B
:10128C0080BD000080B586B000AF07F108030022D6
:10129C001A605A609A60DA603B4600221A605A6003
:1012AC001D4B4FF080421A601B4B3F225A601A4B69
:1012BC0000229A60184B0A22DA60174B00221A613E
:1012CC00154B00229A61144801F020FB0346002BB9
:1012DC0001D000F042F94FF48053BB6007F10803D2
:1012EC0019460D4801F00EFE0346002B01D000F00C
:1012FC0034F900233B6000237B603B4619460648CB
:10130C0002F08CF90346002B01D000F026F900BF47
:10131C001837BD4680BD00BF4802002080B58EB096
:10132C0000AF07F1280300221A605A609A60DA6055
:10133C0007F1200300221A605A603B1D00221A603C
:10134C005A609A60DA601A615A619A612C4B2D4A84
:10135C001A602B4B00225A60294B00229A60284BB2
:10136C004FF6FF72DA60264B00221A61244B0022E2
:10137C009A61234801F0CAFA0346002B01D000F011
:10138C00ECF84FF48053BB6207F1280319461C4854
:10139C0001F0B8FD0346002B01D000F0DEF8184830
:1013AC0001F056FB0346002B01D000F0D6F80023C9
:1013BC003B6200237B6207F120031946104802F0C0
:1013CC002DF90346002B01D000F0C7F800237B60F9
:1013DC000023BB600023FB6000237B613B1D0022CC
:1013EC001946074801F036FD0346002B01D000F0EA
:1013FC00B4F8034800F070F900BF3837BD4680BD23
:10140C00000200200004004080B500AF114B124ACE
:10141C001A60104B4FF416525A600E4B00229A6011
:10142C000C4B0022DA600B4B00221A61094B0C2288
:10143C005A61084B00229A61064B0022DA6105487A
:10144C0002F05CF90346002B01D000F086F800BFD7
:10145C0080BD00BF840100200044004080B586B0F0
:10146C0000AF07F1080300221A605A609A60DA6034
:10147C002E4B9B692D4A43F0040393612B4B9B69C4
:10148C0003F004037B607B68284B9B69274A43F07D
:10149C0008039361254B9B6903F008033B603B6891
:1014AC0000224FF48761224800F0FDFD00224FF42A
:1014BC00A061204800F0F7FD2323BB600023FB60F4
:1014CC0000233B6107F1080319461A4800F050FC51
:1014DC000123BB600023FB6000233B6107F1080381
:1014EC001946134800F044FC4FF48763BB6001239A
:1014FC00FB6000233B6102237B6107F10803194663
:10150C000B4800F035FC4FF4A063BB600123FB607B
:10151C0000233B6102237B6107F108031946054850
:10152C0000F026FC00BF1837BD4680BD00100240FD
:10153C00000C01400008014080B582B000AF78601B
:10154C007B681B68B3F1804F03D100F023F8FEF7E2
:10155C0011FE00BF0837BD4680BD80B400AF72B627
:10156C0000BFFEE780B483B000AF78603960074AF3
:10157C007B68002142F8231005497B683A6841F8E2
:10158C00232000BF0C37BD4680BC704748010020AB
:10159C006001002080B483B000AF00237B601CE0AE
:1015AC00124A7B6852F82330002B13DD0F4A7B68FC
:1015BC0052F823305A1E0D497B6841F823200B4A00
:1015CC007B6852F82330002B04D1094A7B68012137
:1015DC0042F823107B6801337B607B68052BDFDDD1
:1015EC0000BF00BF0C37BD4680BC704760010020B7
:1015FC004801002080B485B000AF154B9B69144A9C
:10160C0043F001039361124B9B6903F00103BB6030
:10161C00BB680F4BDB690E4A43F08053D3610C4B14
:10162C00DB6903F080537B607B680A4B5B68FB6073
:10163C00FB6823F0E063FB60FB6843F08063FB60B6
:10164C00044AFB68536000BF1437BD4680BC70472A
:10165C00001002400000014080B584B000AF7860FB
:10166C007B681B68B3F1804F14D1194BDB69184AA6
:10167C0043F00103D361164BDB6903F00103FB60FC
:10168C00FB68002200211C2000F08BFA1C2000F0CB
:10169C00A4FA18E07B681B680E4A934213D10C4BDA
:1016AC00DB690B4A43F00203D361094BDB6903F09E
:1016BC000203BB60BB68002200211D2000F071FA00
:1016CC001D2000F08AFA00BF1037BD4680BD00BF58
:1016DC00001002400004004080B588B000AF786074
:1016EC0007F1100300221A605A609A60DA607B6876
:1016FC001B680F4A934217D10E4B9B690D4A43F05E
:10170C00040393610B4B9B6903F00403FB60FB68C0
:10171C0040233B6102237B610223FB6107F1100331
:10172C001946054800F024FB00BF2037BD4680BD9C
:10173C0000040040001002400008014080B588B051
:10174C0000AF786007F1100300221A605A609A60AB
:10175C00DA607B681B681F4A934237D11E4BDB69EA
:10176C001D4A43F40033D3611B4BDB6903F4003394
:10177C00FB60FB68184B9B69174A43F004039361A9
:10178C00154B9B6903F00403BB60BB6804233B61EE
:10179C0002237B610323FB6107F1100319460F48F9
:1017AC0000F0E6FA08233B6100237B610023BB6158
:1017BC0007F110031946094800F0DAFA002200215B
:1017CC00262000F0EEF9262000F007FA00BF2037A3
:1017DC00BD4680BD0044004000100240000801409E
:1017EC0080B400AFFEE780B400AFFEE780B400AF7A
:1017FC00FEE780B400AFFEE780B400AFFEE780B434
:10180C0000AF00BFBD4680BC704780B400AF00BFC6
:10181C00BD4680BC704780B400AF00BFBD4680BCE5
:10182C00704780B500AF00F0C9F800BF80BD000064
:10183C0080B500AF024801F005FA00BF80BD00BFC3
:10184C004802002080B500AF024801F0FBF900BF50
:10185C0080BD00BF0002002080B500AF024801F03F
:10186C00DFFF00BF80BD00BF8401002080B586B0C3
:10187C0000AF7860144A154BD31A7B617B693B61CE
:10188C00134B1B68002B02D1114B124A1A60104BE0
:10189C001A687B6813443A699A4207D202F066FBD5
:1018AC0003460C221A604FF0FF3309E0084B1B680B
:1018BC00FB60074B1A687B681344054A1360FB688E
:1018CC0018461837BD4680BD0050002000040000AB
:1018DC0078010020A802002080B400AF00BFBD46F4
:1018EC0080BC70470C480D490D4A002302E0D458C7
:1018FC00C4500433C4188C42F9D30A4A0A4C00234E
:10190C0001E013600432A242FBD3FFF7E5FF02F0C3
:10191C0033FBFFF757FC7047000000201801002034
:10192C00F048000818010020A4020020FEE7000087
:10193C0080B500AF084B1B68074A43F010031360D7
:10194C00032000F023F90F2000F008F8FFF752FEF7
:10195C000023184680BD00BF0020024080B582B035
:10196C0000AF7860124B1A68124B1B7819464FF473
:10197C007A73B3FBF1F3B2FBF3F3184600F03BF9C7
:10198C000346002B01D001230EE07B680F2B0AD8F5
:10199C00002279684FF0FF3000F003F9064A7B68AB
:1019AC001360002300E0012318460837BD4680BDB4
:1019BC00A8000020B0000020AC00002080B400AFD4
:1019CC00054B1B781A46054B1B681344034A1360DE
:1019DC0000BFBD4680BC7047B000002090020020C4
:1019EC0080B400AF024B1B681846BD4680BC7047E4
:1019FC009002002080B485B000AF78607B6803F063
:101A0C000703FB600C4BDB68BB60BA684FF6FF0347
:101A1C001340BB60FB681A02BB68134343F0BF63FF
:101A2C0043F40033BB60044ABB68D36000BF143777
:101A3C00BD4680BC704700BF00ED00E080B400AF35
:101A4C00044BDB681B0A03F007031846BD4680BC39
:101A5C00704700BF00ED00E080B483B000AF0346D8
:101A6C00FB7197F90730002B0BDBFB7903F01F029E
:101A7C00064997F907305B09012000FA02F241F898
:101A8C00232000BF0C37BD4680BC704700E100E04E
:101A9C0080B483B000AF03463960FB7197F907300F
:101AAC00002B0ADB3B68DAB20C4997F907301201BC
:101ABC00D2B20B4483F800230AE03B68DAB208493F
:101ACC00FB7903F00F03043B1201D2B20B441A76DC
:101ADC0000BF0C37BD4680BC704700BF00E100E082
:101AEC0000ED00E080B489B000AFF860B9607A60B6
:101AFC00FB6803F00703FB61FB69C3F10703042BCD
:101B0C0028BF0423BB61FB690433062B02D9FB6994
:101B1C00033B00E000237B614FF0FF32BB6902FA0C
:101B2C0003F3DA43BB681A407B699A404FF0FF31EC
:101B3C007B6901FA03F3D9437B680B4013431846C6
:101B4C002437BD4680BC704780B582B000AF78604A
:101B5C007B68013BB3F1807F01D301230FE00A4A7C
:101B6C007B68013B53600F214FF0FF30FFF790FF74
:101B7C00054B00229A60044B07221A60002318467A
:101B8C000837BD4680BD00BF10E000E080B582B0D4
:101B9C0000AF78607868FFF72DFF00BF0837BD46AF
:101BAC0080BD80B586B000AF0346B9607A60FB7328
:101BBC0000237B61FFF742FF78617A68B968786926
:101BCC00FFF790FF024697F90F3011461846FFF7C2
:101BDC005FFF00BF1837BD4680BD80B582B000AF37
:101BEC000346FB7197F907301846FFF735FF00BF26
:101BFC000837BD4680BD80B582B000AF786078688C
:101C0C00FFF7A2FF034618460837BD4680BD80B4D7
:101C1C0085B000AF78600023FB737B6893F82130AC
:101C2C00022B08D07B6804229A637B68002283F81D
:101C3C002020012320E07B681B681A687B681B68E6
:101C4C0022F00E021A607B681B681A687B681B689E
:101C5C0022F001021A607B681A6C7B68DB6B012135
:101C6C0001FA02F25A607B68012283F821207B681A
:101C7C00002283F82020FB7B18461437BD4680BC1D
:101C8C007047000080B584B000AF78600023FB7310
:101C9C007B6893F82130022B05D07B6804229A6371
:101CAC000123FB7351E07B681B681A687B681B6817
:101CBC0022F00E021A607B681B681A687B681B682E
:101CCC0022F001021A607B681B68224A934229D0D9
:101CDC007B681B68204A934222D07B681B681F4A92
:101CEC0093421AD07B681B681D4A934212D07B68C2
:101CFC001B681C4A93420AD07B681B681A4A9342A1
:101D0C0002D14FF480130EE04FF080730BE04FF4D0
:101D1C00803308E04FF4805305E04FF4807302E009
:101D2C00102300E00123114A53607B68012283F8E1
:101D3C0021207B68002283F820207B685B6B002BC2
:101D4C0003D07B685B6B78689847FB7B1846103731
:101D5C00BD4680BD080002401C000240300002401D
:101D6C0044000240580002406C0002400000024057
:101D7C0080B48BB000AF7860396000237B620023A5
:101D8C003B6269E101227B6A02FA03F3FB613B6867
:101D9C001B68FA691340BB61BA69FB699A4240F04F
:101DAC0058813B685B689A4A93425ED0984A93424A
:101DBC0075D8984A934258D0964A93426FD8964A0F
:101DCC00934252D0944A934269D8944A93424CD04D
:101DDC00924A934263D8924A934246D0904A934295
:101DEC005DD8122B2AD8122B59D801A252F823F005
:101DFC00771E0008511E0008631E0008A51E00086F
:101E0C00AB1E0008AB1E0008AB1E0008AB1E000882
:101E1C00AB1E0008AB1E0008AB1E0008AB1E000872
:101E2C00AB1E0008AB1E0008AB1E0008AB1E000862
:101E3C00AB1E0008591E00086D1E0008794A93421B
:101E4C0013D02CE03B68DB683B6229E03B68DB6825
:101E5C0004333B6224E03B68DB6808333B621FE0E1
:101E6C003B68DB680C333B621AE03B689B68002BD9
:101E7C0002D104233B6213E03B689B68012B05D124
:101E8C0008233B627B68FA691A6109E008233B620C
:101E9C007B68FA695A6103E000233B6200E000BFF3
:101EAC00BB69FF2B01D87B6801E07B6804337B6145
:101EBC00BB69FF2B02D87B6A9B0002E07B6A083B64
:101ECC009B003B617B691A680F213B6901FA03F3A4
:101EDC00DB431A40396A3B6901FA03F31A437B6905
:101EEC001A603B685B6803F08053002B00F0B180F4
:101EFC004D4B9B694C4A43F0010393614A4B9B69E0
:101F0C0003F00103BB60BB68484A7B6A9B08023341
:101F1C0052F82330FB607B6A03F003039B000F2213
:101F2C0002FA03F3DB43FA681340FB607B68404A18
:101F3C00934213D07B683F4A93420DD07B683E4A54
:101F4C00934207D07B683D4A934201D1032306E0BC
:101F5C00042304E0022302E0012300E000237A6A58
:101F6C0002F0030292009340FA681343FB602F497E
:101F7C007B6A9B080233FA6841F823203B685B6854
:101F8C0003F48033002B06D02D4B1A682C49BB6907
:101F9C0013430B6006E02A4B1A68BB69DB432849E4
:101FAC0013400B603B685B6803F40033002B06D0D6
:101FBC00234B5A682249BB6913434B6006E0204B04
:101FCC005A68BB69DB431E4913404B603B685B6836
:101FDC0003F48013002B06D0194B9A681849BB697F
:101FEC0013438B6006E0164B9A68BB69DB431449BC
:101FFC0013408B603B685B6803F40013002B21D00B
:10200C000F4BDA680E49BB691343CB6021E000BF6C
:10201C0000003210000031100000221000002110CE
:10202C0000001210000011100010024000000140CE
:10203C0000080140000C0140001001400014014058
:10204C00000401400B4BDA68BB69DB4309491340C0
:10205C00CB607B6A01337B623B681A687B6A22FA2D
:10206C0003F3002B7FF48EAE00BF00BF2C37BD46B0
:10207C0080BC70470004014080B485B000AF78602C
:10208C000B467B807B689A687B881340002B02D0C0
:10209C000123FB7301E00023FB73FB7B1846143711
:1020AC00BD4680BC704780B483B000AF78600B46EF
:1020BC007B8013467B707B78002B03D07A887B68FF
:1020CC001A6103E07B881A047B681A6100BF0C3725
:1020DC00BD4680BC7047000080B586B000AF78600C
:1020EC007B68002B01D101236CE27B681B6803F039
:1020FC000103002B00F08780924B5B6803F00C030C
:10210C00042B0CD08F4B5B6803F00C03082B12D103
:10211C008C4B5B6803F48033B3F5803F0BD1894B58
:10212C001B6803F40033002B6CD07B685B68002BBE
:10213C0068D1012346E27B685B68B3F5803F06D12A
:10214C00804B1B687F4A43F4803313602EE07B681E
:10215C005B68002B0CD17B4B1B687A4A23F48033D1
:10216C001360784B1B68774A23F4802313601DE0BF
:10217C007B685B68B3F5A02F0CD1724B1B68714A5E
:10218C0043F4802313606F4B1B686E4A43F4803317
:10219C0013600BE06B4B1B686A4A23F480331360AB
:1021AC00684B1B68674A23F4802313607B685B6869
:1021BC00002B13D0FFF714FC386108E0FFF710FC7C
:1021CC0002463B69D31A642B01D90323FAE15D4B18
:1021DC001B6803F40033002BF0D014E0FFF700FC75
:1021EC00386108E0FFF7FCFB02463B69D31A642B0D
:1021FC0001D90323E6E1534B1B6803F40033002B96
:10220C00F0D100E000BF7B681B6803F00203002BD9
:10221C0063D04C4B5B6803F00C03002B0BD0494B89
:10222C005B6803F00C03082B1CD1464B5B6803F472
:10223C008033002B16D1434B1B6803F00203002B99
:10224C0005D07B681B69012B01D00123BAE13D4B02
:10225C001B6823F0F8027B685B69DB003949134388
:10226C000B603AE07B681B69002B20D0364B0122B7
:10227C001A60FFF7B5FB386108E0FFF7B1FB0246C7
:10228C003B69D31A022B01D903239BE12D4B1B680D
:10229C0003F00203002BF0D02A4B1B6823F0F8024A
:1022AC007B685B69DB00274913430B6015E0264B09
:1022BC0000221A60FFF794FB386108E0FFF790FBEF
:1022CC0002463B69D31A022B01D903237AE11D4B39
:1022DC001B6803F00203002BF0D17B681B6803F032
:1022EC000803002B3AD07B689B69002B19D0174B45
:1022FC0001221A60FFF774FB386108E0FFF770FBEE
:10230C0002463B69D31A022B01D903235AE10D4B28
:10231C005B6A03F00203002BF0D0012000F0D8FA26
:10232C001CE00A4B00221A60FFF75AFB38610FE0E1
:10233C00FFF756FB02463B69D31A022B08D903233D
:10234C0040E100BF001002400000424280044242C3
:10235C009E4B5B6A03F00203002BE9D17B681B6880
:10236C0003F00403002B00F0A6800023FB75974BB1
:10237C00DB6903F08053002B0DD1944BDB69934A3E
:10238C0043F08053D361914BDB6903F08053BB6006
:10239C00BB680123FB758E4B1B6803F48073002B09
:1023AC0018D18B4B1B688A4A43F480731360FFF778
:1023BC0017FB386108E0FFF713FB02463B69D31AA1
:1023CC00642B01D90323FDE0814B1B6803F480735C
:1023DC00002BF0D07B68DB68012B06D17B4B1B6A92
:1023EC007A4A43F0010313622DE07B68DB68002B13
:1023FC000CD1764B1B6A754A23F001031362734BA5
:10240C001B6A724A23F0040313621CE07B68DB68CE
:10241C00052B0CD16D4B1B6A6C4A43F00403136201
:10242C006A4B1B6A694A43F0010313620BE0674B6A
:10243C001B6A664A23F001031362644B1B6A634AEE
:10244C0023F0040313627B68DB68002B15D0FFF7C5
:10245C00C7FA38610AE0FFF7C3FA02463B69D31AA0
:10246C0041F28832934201D90323ABE0574B1B6AEC
:10247C0003F00203002BEED014E0FFF7B1FA386141
:10248C000AE0FFF7ADFA02463B69D31A41F28832F3
:10249C00934201D9032395E04C4B1B6A03F00203D2
:1024AC00002BEED1FB7D012B05D1484BDB69474A54
:1024BC0023F08053D3617B68DB69002B00F08180B3
:1024CC00424B5B6803F00C03082B61D07B68DB6923
:1024DC00022B46D13F4B00221A60FFF781FA38617C
:1024EC0008E0FFF77DFA02463B69D31A022B01D9AB
:1024FC00032367E0354B1B6803F00073002BF0D10E
:10250C007B681B6AB3F5803F08D1304B5B6823F4C2
:10251C0000327B689B682D4913434B602B4B5B68E7
:10252C0023F474127B68196A7B685B6A0B43274936
:10253C0013434B60274B01221A60FFF751FA3861A5
:10254C0008E0FFF74DFA02463B69D31A022B01D97A
:10255C00032337E01D4B1B6803F00073002BF0D0F6
:10256C002FE01C4B00221A60FFF73AFA386108E0A2
:10257C00FFF736FA02463B69D31A022B01D9032323
:10258C0020E0124B1B6803F00073002BF0D118E015
:10259C007B68DB69012B01D1012313E00B4B5B68DA
:1025AC00FB60FB6803F480327B681B6A9A4206D19D
:1025BC00FB6803F470127B685B6A9A4201D00123BA
:1025CC0000E0002318461837BD4680BD00100240BD
:1025DC00007000406000424280B584B000AF78606B
:1025EC0039607B68002B01D10123D0E06A4B1B685A
:1025FC0003F007033A689A4210D9674B1B6823F023
:10260C00070265493B6813430B60634B1B6803F07F
:10261C0007033A689A4201D00123B8E07B681B6833
:10262C0003F00203002B20D07B681B6803F004032B
:10263C00002B05D0594B5B68584A43F4E063536058
:10264C007B681B6803F00803002B05D0534B5B68B9
:10265C00524A43F460535360504B5B6823F0F002D2
:10266C007B689B684D4913434B607B681B6803F088
:10267C000103002B40D07B685B68012B07D1474BD3
:10268C001B6803F40033002B15D101237FE07B681A
:10269C005B68022B07D1414B1B6803F00073002BC6
:1026AC0009D1012373E03D4B1B6803F00203002B9F
:1026BC0001D101236BE0394B5B6823F003027B688B
:1026CC005B68364913434B60FFF78AF9F8600AE000
:1026DC00FFF786F90246FB68D31A41F2883293421F
:1026EC0001D9032353E02D4B5B6803F00C027B688C
:1026FC005B689B009A42EBD1274B1B6803F00703E6
:10270C003A689A4210D2244B1B6823F007022249E4
:10271C003B6813430B60204B1B6803F007033A68BC
:10272C009A4201D0012332E07B681B6803F004035A
:10273C00002B08D0194B5B6823F4E0627B68DB68E4
:10274C00164913434B607B681B6803F00803002B8E
:10275C0009D0124B5B6823F460527B681B69DB0069
:10276C000E4913434B6000F021F802460B4B5B689B
:10277C001B0903F00F030A49CB5C22FA03F3094A45
:10278C001360094B1B681846FFF7E8F8002318463E
:10279C001037BD4680BD00BF002002400010024033
:1027AC009C480008A8000020AC00002090B48AB01F
:1027BC0000AF2A4B3C1D0FCB84E80F0040F20123E5
:1027CC003B800023FB610023BB6100237B62002361
:1027DC007B6100233B62224B5B68FB61FB6903F06E
:1027EC000C03042B02D0082B03D02DE01D4B3B62B5
:1027FC002DE0FB699B0C03F00F0307F12802134437
:10280C0013F8243C7B61FB6903F48033002B13D059
:10281C00134B5B685B0C03F0010307F128021344B4
:10282C0013F8283CBB617B690E4A02FB03F2BB69BF
:10283C00B2FBF3F37B6204E07B690B4A02FB03F30C
:10284C007B627B6A3B6202E0064B3B6200BF3B6AE9
:10285C0018462837BD4690BC704700BF8C4800080E
:10286C000010024000127A0000093D0080B400AF55
:10287C00024B1B681846BD4680BC7047A800002060
:10288C0080B500AFFFF7F2FF0246054B5B681B0AF1
:10289C0003F007030349CB5C22FA03F3184680BD0F
:1028AC0000100240AC48000880B500AFFFF7DEFF17
:1028BC000246054B5B68DB0A03F007030349CB5C5C
:1028CC0022FA03F3184680BD00100240AC48000801
:1028DC0080B485B000AF78600A4B1B680A4AA2FB33
:1028EC0003235B0A7A6802FB03F3FB6000BFFB68FF
:1028FC005A1EFA60002BF9D100BF00BF1437BD4639
:10290C0080BC7047A8000020D34D621080B582B007
:10291C0000AF78607B68002B01D1012341E07B681C
:10292C0093F83D30DBB2002B06D17B68002283F894
:10293C003C207868FEF790FE7B68022283F83D20ED
:10294C007B681A687B6804331946104600F0C2FB9A
:10295C007B68012283F846207B68012283F83E20A5
:10296C007B68012283F83F207B68012283F840209A
:10297C007B68012283F841207B68012283F8422086
:10298C007B68012283F843207B68012283F8442072
:10299C007B68012283F845207B68012283F83D2067
:1029AC00002318460837BD4680BD000080B485B0B2
:1029BC0000AF78607B6893F83D30DBB2012B01D01F
:1029CC0001233AE07B68022283F83D207B681B6878
:1029DC00DA687B681B6842F00102DA607B681B686E
:1029EC00184A93420ED07B681B68B3F1804F09D014
:1029FC007B681B68144A934204D07B681B68134A9B
:102A0C00934211D17B681B689B6803F00703FB6042
:102A1C00FB68062B10D07B681B681A687B681B68E8
:102A2C0042F001021A6007E07B681B681A687B6839
:102A3C001B6842F001021A60002318461437BD4689
:102A4C0080BC7047002C014000040040000800408E
:102A5C0080B582B000AF78607B68002B01D1012378
:102A6C0041E07B6893F83D30DBB2002B06D17B68EC
:102A7C00002283F83C20786800F039F87B68022249
:102A8C0083F83D207B681A687B680433194610462E
:102A9C0000F020FB7B68012283F846207B68012232
:102AAC0083F83E207B68012283F83F207B6801225B
:102ABC0083F840207B68012283F841207B68012247
:102ACC0083F842207B68012283F843207B68012233
:102ADC0083F844207B68012283F845207B6801221F
:102AEC0083F83D20002318460837BD4680BD80B4CE
:102AFC0083B000AF786000BF0C37BD4680BC704718
:102B0C0080B584B000AF786039603B68002B09D188
:102B1C007B6893F83E30DBB2012B14BF01230023FA
:102B2C00DBB222E03B68042B09D17B6893F83F3081
:102B3C00DBB2012B14BF01230023DBB215E03B6891
:102B4C00082B09D17B6893F84030DBB2012B14BF02
:102B5C0001230023DBB208E07B6893F84130DBB241
:102B6C00012B14BF01230023DBB2002B01D0012366
:102B7C005EE03B68002B04D17B68022283F83E2088
:102B8C0013E03B68042B04D17B68022283F83F20BE
:102B9C000BE03B68082B04D17B68022283F84020B1
:102BAC0003E07B68022283F841207B681B680122CA
:102BBC003968184600F00EFD7B681B681E4A93426C
:102BCC0007D17B681B685A6C7B681B6842F4004217
:102BDC005A647B681B68184A93420ED07B681B684A
:102BEC00B3F1804F09D07B681B68144A934204D020
:102BFC007B681B68124A934211D17B681B689B68E7
:102C0C0003F00703FB60FB68062B10D07B681B6886
:102C1C001A687B681B6842F001021A6007E07B6847
:102C2C001B681A687B681B6842F001021A6000235B
:102C3C0018461037BD4680BD002C014000040040F2
:102C4C000008004080B582B000AF78607B681B68DC
:102C5C001B6903F00203022B22D17B681B68DB6823
:102C6C0003F00203022B1BD17B681B686FF002027E
:102C7C001A617B6801221A777B681B689B6903F0D9
:102C8C000303002B03D0786800F009FA05E078689C
:102C9C0000F0FCF9786800F00BFA7B6800221A77D8
:102CAC007B681B681B6903F00403042B22D17B682F
:102CBC001B68DB6803F00403042B1BD17B681B68C7
:102CCC006FF004021A617B6802221A777B681B681A
:102CDC009B6903F44073002B03D0786800F0DFF994
:102CEC0005E0786800F0D2F9786800F0E1F97B68CB
:102CFC0000221A777B681B681B6903F00803082BFA
:102D0C0022D17B681B68DB6803F00803082B1BD1FE
:102D1C007B681B686FF008021A617B6804221A77C3
:102D2C007B681B68DB6903F00303002B03D0786816
:102D3C0000F0B5F905E0786800F0A8F9786800F0C3
:102D4C00B7F97B6800221A777B681B681B6903F054
:102D5C001003102B22D17B681B68DB6803F0100377
:102D6C00102B1BD17B681B686FF010021A617B68FB
:102D7C0008221A777B681B68DB6903F44073002B0D
:102D8C0003D0786800F08BF905E0786800F07EF9E4
:102D9C00786800F08DF97B6800221A777B681B68D5
:102DAC001B6903F00103012B0ED17B681B68DB68E8
:102DBC0003F00103012B07D17B681B686FF0010244
:102DCC001A617868FEF7B8FB7B681B681B6903F017
:102DDC008003802B0ED17B681B68DB6803F08003BB
:102DEC00802B07D17B681B686FF080021A617868B2
:102DFC0000F07BFC7B681B681B6903F04003402BD5
:102E0C000ED17B681B68DB6803F04003402B07D1B5
:102E1C007B681B686FF040021A61786800F051F90A
:102E2C007B681B681B6903F02003202B0ED17B6889
:102E3C001B68DB6803F02003202B07D17B681B6821
:102E4C006FF020021A61786800F046FC00BF08376A
:102E5C00BD4680BD80B584B000AFF860B9607A60C3
:102E6C00FB6893F83C30012B01D1022346E0FB6850
:102E7C00012283F83C207B680C2B39D801A252F834
:102E8C0023F000BFC52E0008FD2E0008FD2E000803
:102E9C00FD2E0008D32E0008FD2E0008FD2E000884
:102EAC00FD2E0008E12E0008FD2E0008FD2E000866
:102EBC00FD2E0008EF2E0008FB681B68B968184649
:102ECC0000F06AF915E0FB681B68B968184600F059
:102EDC00C9F90EE0FB681B68B968184600F02CFABB
:102EEC0007E0FB681B68B968184600F08FFA00E031
:102EFC0000BFFB68002283F83C20002318461037E3
:102F0C00BD4680BD80B584B000AF786039607B6809
:102F1C0093F83C30012B01D10223B3E07B680122F2
:102F2C0083F83C207B68022283F83D207B681B6879
:102F3C009B68FB60FB6823F07703FB60FB6823F462
:102F4C007F43FB607B681B68FA689A603B681B6870
:102F5C00B3F5005F3ED0B3F5005F00F28780B3F5A8
:102F6C00805F00F08580B3F5805F7FD8702B1AD01E
:102F7C00702B7BD8602B50D0602B77D8502B3CD04B
:102F8C00502B73D8402B58D0402B6FD8302B64D09B
:102F9C00302B6BD8202B60D0202B67D8002B5CD02B
:102FAC00102B5AD062E07B6818683B6899683B68C4
:102FBC005A683B68DB6800F0EEFA7B681B689B681C
:102FCC00FB60FB6843F07703FB607B681B68FA6867
:102FDC009A604EE07B6818683B6899683B685A6851
:102FEC003B68DB6800F0D7FA7B681B689A687B68E3
:102FFC001B6842F480429A603BE07B6818683B682F
:10300C0059683B68DB681A4600F04EFA7B681B680F
:10301C005021184600F0A5FA2BE07B6818683B6835
:10302C0059683B68DB681A4600F06CFA7B681B68D1
:10303C006021184600F095FA1BE07B6818683B6825
:10304C0059683B68DB681A4600F02EFA7B681B68EF
:10305C004021184600F085FA0BE07B681A683B6843
:10306C001B681946104600F07CFA02E000BF00E035
:10307C0000BF7B68012283F83D207B68002283F827
:10308C003C20002318461037BD4680BD80B483B069
:10309C0000AF786000BF0C37BD4680BC704780B471
:1030AC0083B000AF786000BF0C37BD4680BC704762
:1030BC0080B483B000AF786000BF0C37BD4680BCD5
:1030CC00704780B483B000AF786000BF0C37BD464A
:1030DC0080BC704780B485B000AF786039607B6885
:1030EC001B68FB607B68294A93420BD07B68B3F169
:1030FC00804F07D07B68264A934203D07B68254AD1
:10310C00934208D1FB6823F07003FB603B685B685B
:10311C00FA681343FB607B681C4A93420BD07B68B4
:10312C00B3F1804F07D07B68194A934203D07B6878
:10313C00184A934208D1FB6823F44073FB603B6848
:10314C00DB68FA681343FB60FB6823F080023B6882
:10315C005B691343FB607B68FA681A603B689A688A
:10316C007B68DA623B681A687B689A627B68074AFC
:10317C00934203D13B681A697B681A637B6801220E
:10318C005A6100BF1437BD4680BC7047002C01400B
:10319C00000400400008004080B487B000AF7860A5
:1031AC0039607B681B6A23F001027B681A627B68BA
:1031BC001B6A7B617B685B683B617B689B69FB601E
:1031CC00FB6823F07003FB60FB6823F00303FB60D8
:1031DC003B681B68FA681343FB607B6923F00203AE
:1031EC007B613B689B687A6913437B617B681C4AF3
:1031FC0093420CD17B6923F008037B613B68DB684D
:10320C007A6913437B617B6923F004037B617B68E0
:10321C00134A934211D13B6923F480733B613B69A0
:10322C0023F400733B613B685B693A6913433B6170
:10323C003B689B693A6913433B617B683A695A6006
:10324C007B68FA689A613B685A687B685A637B684A
:10325C007A691A6200BF1C37BD4680BC704700BF3C
:10326C00002C014080B487B000AF786039607B6877
:10327C001B6A23F010027B681A627B681B6A7B61F5
:10328C007B685B683B617B689B69FB60FB6823F434
:10329C00E043FB60FB6823F44073FB603B681B68F6
:1032AC001B02FA681343FB607B6923F020037B61EC
:1032BC003B689B681B017A6913437B617B681D4AE1
:1032CC0093420DD17B6923F080037B613B68DB6803
:1032DC001B017A6913437B617B6923F040037B619B
:1032EC007B68144A934213D13B6923F480633B619E
:1032FC003B6923F400633B613B685B699B003A6963
:10330C0013433B613B689B699B003A6913433B61E8
:10331C007B683A695A607B68FA689A613B685A68BC
:10332C007B689A637B687A691A6200BF1C37BD465A
:10333C0080BC7047002C014080B487B000AF78602F
:10334C0039607B681B6A23F480727B681A627B6825
:10335C001B6A7B617B685B683B617B68DB69FB603C
:10336C00FB6823F07003FB60FB6823F00303FB6036
:10337C003B681B68FA681343FB607B6923F400739A
:10338C007B613B689B681B027A6913437B617B689A
:10339C001D4A93420DD17B6923F400637B613B682A
:1033AC00DB681B027A6913437B617B6923F48063BE
:1033BC007B617B68144A934213D13B6923F480539D
:1033CC003B613B6923F400533B613B685B691B0128
:1033DC003A6913433B613B689B691B013A69134390
:1033EC003B617B683A695A607B68FA68DA613B68D2
:1033FC005A687B68DA637B687A691A6200BF1C378B
:10340C00BD4680BC704700BF002C014080B487B023
:10341C0000AF786039607B681B6A23F480527B684C
:10342C001A627B681B6A3B617B685B687B617B68AB
:10343C00DB69FB60FB6823F4E043FB60FB6823F46F
:10344C004073FB603B681B681B02FA681343FB600C
:10345C003B6923F400533B613B689B681B033A694F
:10346C0013433B617B680F4A934209D17B6923F478
:10347C0080437B613B685B699B017A6913437B6189
:10348C007B687A695A607B68FA68DA613B685A68CB
:10349C007B681A647B683A691A6200BF1C37BD46A8
:1034AC0080BC7047002C014080B487B000AFF8603E
:1034BC00B9607A60FB681B6A7B61FB681B6A23F04E
:1034CC000102FB681A62FB689B693B613B6923F054
:1034DC00F0033B617B681B013A6913433B617B69D9
:1034EC0023F00A037B617A69BB6813437B61FB6839
:1034FC003A699A61FB687A691A6200BF1C37BD464B
:10350C0080BC704780B487B000AFF860B9607A6057
:10351C00FB681B6A23F01002FB681A62FB689B694C
:10352C007B61FB681B6A3B617B6923F470437B61A5
:10353C007B681B037A6913437B613B6923F0A0030F
:10354C003B61BB681B013A6913433B61FB687A69B9
:10355C009A61FB683A691A6200BF1C37BD4680BC91
:10356C00704780B485B000AF786039607B689B6829
:10357C00FB60FB6823F07003FB603A68FB68134345
:10358C0043F00703FB607B68FA689A6000BF14374E
:10359C00BD4680BC704780B487B000AFF860B9609E
:1035AC007A603B60FB689B687B617B6923F47F439B
:1035BC007B613B681A027B681A43BB6813437A69C8
:1035CC0013437B61FB687A699A6000BF1C37BD4668
:1035DC0080BC704780B487B000AFF860B9607A6087
:1035EC00BB6803F01F03012202FA03F37B61FB6843
:1035FC001A6A7B69DB431A40FB681A62FB681A6A19
:10360C00BB6803F01F03796801FA03F31A43FB68E4
:10361C001A6200BF1C37BD4680BC704780B485B0B1
:10362C0000AF786039607B6893F83C30012B01D196
:10363C00022346E07B68012283F83C207B6802224F
:10364C0083F83D207B681B685B68FB607B681B68AC
:10365C009B68BB60FB6823F07003FB603B681B68D6
:10366C00FA681343FB607B681B68FA685A607B68D6
:10367C001B68164A93420ED07B681B68B3F1804FCF
:10368C0009D07B681B68124A934204D07B681B6884
:10369C00104A93420CD1BB6823F08003BB603B689B
:1036AC005B68BA681343BB607B681B68BA689A6036
:1036BC007B68012283F83D207B68002283F83C2044
:1036CC00002318461437BD4680BC7047002C0140BF
:1036DC00000400400008004080B483B000AF786064
:1036EC0000BF0C37BD4680BC704780B483B000AFC0
:1036FC00786000BF0C37BD4680BC704780B582B087
:10370C0000AF78607B68002B01D101233FE07B6820
:10371C0093F83D30DBB2002B06D17B68002283F896
:10372C003C207868FEF70AF87B68242283F83D2059
:10373C007B681B68DA687B681B6822F40052DA60CD
:10374C00786800F085FB7B681B681A697B681B68CE
:10375C0022F490421A617B681B685A697B681B686B
:10376C0022F02A025A617B681B68DA687B681B6846
:10377C0042F40052DA607B6800221A647B682022D3
:10378C0083F83D207B68202283F83E2000231846D6
:10379C000837BD4680BD80B485B000AFF860B96015
:1037AC001346FB80FB6893F83D30DBB2202B30D105
:1037BC00BB68002B02D0FB88002B01D1012329E030
:1037CC00FB6893F83C30012B01D1022322E0FB680B
:1037DC00012283F83C20FB68BA681A62FB68FA88FD
:1037EC009A84FB68FA88DA84FB6800221A64FB6806
:1037FC00212283F83D20FB68002283F83C20FB68E3
:10380C001B68DA68FB681B6842F08002DA600023F0
:10381C0000E0022318461437BD4680BC70470000F8
:10382C0080B58AB000AF78607B681B681B687B62D0
:10383C007B681B68DB683B627B681B685B69FB61B0
:10384C000023BB6100237B617B6A03F00F03BB6128
:10385C00BB69002B0DD17B6A03F02003002B08D031
:10386C003B6A03F02003002B03D0786800F046FA83
:10387C007BE1BB69002B00F0B180FB6903F0010315
:10388C00002B05D13B6A03F49073002B00F0A6804B
:10389C007B6A03F00103002B0AD03B6A03F48073AC
:1038AC00002B05D07B681B6C43F001027B681A640B
:1038BC007B6A03F00403002B0AD0FB6903F00103BD
:1038CC00002B05D07B681B6C43F002027B681A64EA
:1038DC007B6A03F00203002B0AD0FB6903F001039F
:1038EC00002B05D07B681B6C43F004027B681A64C8
:1038FC007B6A03F00803002B0FD03B6A03F0200314
:10390C00002B04D1FB6903F00103002B05D07B686D
:10391C001B6C43F008027B681A647B681B6C002BE1
:10392C0000F01E817B6A03F02003002B07D03B6A5A
:10393C0003F02003002B02D0786800F0DFF97B68DD
:10394C001B685B6903F04003002B14BF01230023A9
:10395C00DBB27B617B681B6C03F00803002B02D18C
:10396C007B69002B31D0786800F021F97B681B68EB
:10397C005B6903F04003002B23D07B681B685A69FA
:10398C007B681B6822F040025A617B689B6B002BA2
:10399C0013D07B689B6B764A5A637B689B6B18468B
:1039AC00FEF770F90346002B16D07B689B6B5B6BA4
:1039BC007A68926B104698470EE0786800F0E3F84E
:1039CC000AE0786800F0DFF806E0786800F0DBF8D1
:1039DC007B6800221A64C3E000BFC1E07B681B6BEC
:1039EC00012B40F0A1807B6A03F01003002B00F048
:1039FC009B803B6A03F01003002B00F095800023A2
:103A0C00FB607B681B681B68FB607B681B685B68E2
:103A1C00FB60FB687B681B685B6903F04003002B51
:103A2C004ED07B689B6B1B685B683B823B8A002B90
:103A3C0000F098807B689B8D3A8A9A4280F0928045
:103A4C007B683A8ADA857B689B6B9B69202B2BD031
:103A5C007B681B68DA687B681B6822F48072DA600A
:103A6C007B681B685A697B681B6822F001025A61EB
:103A7C007B681B685A697B681B6822F040025A619C
:103A8C007B68202283F83E207B6800221A637B68C7
:103A9C001B68DA687B681B6822F01002DA607B68AE
:103AAC009B6B1846FEF7B3F87B689A8D7B68DB8DB1
:103ABC009BB2D31A9BB21946786800F06DF851E0AE
:103ACC007B689A8D7B68DB8D9BB2D31A7B827B687B
:103ADC00DB8D9BB2002B47D07B8A002B44D07B68BC
:103AEC001B68DA687B681B6822F49072DA607B686A
:103AFC001B685A697B681B6822F001025A617B685B
:103B0C00202283F83E207B6800221A637B681B68A6
:103B1C00DA687B681B6822F01002DA607B8A19462F
:103B2C00786800F039F81FE07B6A03F08003002B03
:103B3C0008D03B6A03F08003002B03D0786800F0B8
:103B4C0076F812E07B6A03F04003002B0DD03B6A41
:103B5C0003F04003002B08D0786800F0B7F804E0BD
:103B6C0000BF02E000BF00E000BF2837BD4680BDAB
:103B7C00133C000880B483B000AF786000BF0C37F2
:103B8C00BD4680BC704780B483B000AF786000BF86
:103B9C000C37BD4680BC704780B483B000AF7860F2
:103BAC000B467B8000BF0C37BD4680BC704780B491
:103BBC0083B000AF78607B681B68DA687B681B6831
:103BCC0022F49072DA607B681B685A697B681B6808
:103BDC0022F001025A617B681B6B012B07D17B68B9
:103BEC001B68DA687B681B6822F01002DA607B685D
:103BFC00202283F83E207B6800221A6300BF0C371A
:103C0C00BD4680BC704780B584B000AF78607B68DF
:103C1C005B6AFB60FB680022DA85FB680022DA84B1
:103C2C00F868FFF7B0FF00BF1037BD4680BD80B409
:103C3C0085B000AF78607B6893F83D30DBB2212B08
:103C4C003ED17B689B68B3F5805F14D17B681B69A0
:103C5C00002B10D17B681B6AFB60FB681B881A4623
:103C6C007B681B68C2F308025A607B681B6A9A1C4B
:103C7C007B681A6208E07B681B6A591C7A681162BF
:103C8C001A787B681B685A607B68DB8C9BB2013BA3
:103C9C009BB27A681946D184002B0FD17B681B68C4
:103CAC00DA687B681B6822F08002DA607B681B682C
:103CBC00DA687B681B6842F04002DA60002300E09F
:103CCC00022318461437BD4680BC704780B582B0BD
:103CDC0000AF78607B681B68DA687B681B6822F031
:103CEC004002DA607B68202283F83D207868FFF779
:103CFC0041FF002318460837BD4680BD80B586B00D
:103D0C0000AF78607B6893F83E30DBB2222B40F03A
:103D1C0099807B689B68B3F5805F17D17B681B69C2
:103D2C00002B13D100237B617B689B6A3B617B6812
:103D3C001B685B689BB2C3F308039AB23B691A8099
:103D4C007B689B6A9A1C7B689A6226E07B689B6AFC
:103D5C007B6100233B617B689B68B3F5805F07D078
:103D6C007B689B68002B0AD17B681B69002B06D1F2
:103D7C007B681B685B68DAB27B691A7008E07B6849
:103D8C001B685B68DBB203F07F03DAB27B691A70E5
:103D9C007B689B6A5A1C7B689A627B68DB8D9BB242
:103DAC00013B9BB27A681946D185002B48D17B68C0
:103DBC001B68DA687B681B6822F02002DA607B687B
:103DCC001B68DA687B681B6822F48072DA607B6897
:103DDC001B685A697B681B6822F001025A617B6878
:103DEC00202283F83E207B681B6B012B23D17B6840
:103DFC0000221A637B681B68DA687B681B6822F0F8
:103E0C001002DA607B681B681B6803F01003102B30
:103E1C000AD10023FB607B681B681B68FB607B6816
:103E2C001B685B68FB60FB687B689B8D1946786838
:103E3C00FFF7B2FE02E07868FDF7BAF9002302E062
:103E4C00002300E0022318461837BD4680BD000051
:103E5C0080B584B000AF78607B681B681B6923F465
:103E6C0040517B68DA687B681B680A431A617B687F
:103E7C009A687B681B691A437B685B691343BB6058
:103E8C007B681B68DB6823F4B05323F00C037A685F
:103E9C001268B9680B43D3607B681B685B6923F4B9
:103EAC0040717B689A697B681B680A435A617B681E
:103EBC001B682C4A934203D1FEF7F6FCF86002E033
:103ECC00FEF7DEFCF860FA6813469B0013449A0078
:103EDC001A447B685B689B00B2FBF3F3224AA2FB9B
:103EEC0003235B091901FA6813469B0013449A00DB
:103EFC001A447B685B689B00B2FBF3F21A4BA3FB82
:103F0C0002035B09642000FB03F3D31A1B01323359
:103F1C00154AA2FB03235B0903F0F0031944FA686A
:103F2C0013469B0013449A001A447B685B689B0001
:103F3C00B2FBF3F20C4BA3FB02035B09642000FB06
:103F4C0003F3D31A1B013233074AA2FB03235B0989
:103F5C0003F00F027B681B680A449A6000BF10379D
:103F6C00BD4680BD003801401F85EB51014B1868E0
:103F7C00704700BFB400002070B500260C4D0D4CEE
:103F8C00641BA410A64209D100F05CFC00260A4D6B
:103F9C000A4C641BA410A64205D170BD55F8043B15
:103FAC0098470136EEE755F8043B98470136F2E79F
:103FBC00E8480008E8480008E8480008EC48000811
:103FCC0003460244934200D1704703F8011BF9E702
:103FDC000EB46FF0004100B59CB01DAB0290069082
:103FEC00079104910848094953F8042B059100687E
:103FFC0002A9019300F068F80022029B1A701CB011
:10400C005DF804EB03B07047B40000200802FFFF1A
:10401C002DE9F0478E6882469E420C4690461F461C
:10402C0038D88A8912F4906F32D025680969013327
:10403C00A5EB010965694B4405EB450505EBD57509
:10404C006D109D4238BF1D46530531D5294600F0F1
:10405C0053FB064650B90C234FF0FF30CAF8003022
:10406C00A38943F04003A381BDE8F0874A46216948
:10407C0000F0CEFAA38923F4906343F08003A3816C
:10408C0026614E4426603E466561A5EB0905A56098
:10409C00BE4200D93E4632464146206800F0C6FA80
:1040AC00A36822689B1B32440020A3602260DBE7DC
:1040BC002A4600F07BFB06460028E1D150462169D8
:1040CC0000F0CEFAC7E700002DE9F04F98468B8937
:1040DC0007461B060D4614469DB00ED50B6963B9F9
:1040EC00402100F009FB2860286120B90C233B60BB
:1040FC004FF0FF30D1E040236B6100230993202364
:10410C008DF8293030234FF00109CDF80C80DFF801
:10411C00A4818DF82A3023469A4613F8012B0AB154
:10412C00252AF9D1BAEB040B0BD05B462246294663
:10413C003846FFF76DFF013000F0AA80099A5A4407
:10414C0009929AF80030002B00F0A28000234FF067
:10415C00FF32CDE905230AF1010A049307938DF888
:10416C0053301A935446052214F8011B514800F0A1
:10417C0041FA049AD8B9D00644BF20238DF85330A5
:10418C00110744BF2B238DF853309AF800302A2B9B
:10419C0015D0544600204FF00A0C079A214611F80E
:1041AC00013B303B092B4ED9B0B1079214E0A0EB88
:1041BC00080309FA03F31343A2460493D2E7039BC3
:1041CC00191D1B680391002BBBBF5B4242F002021E
:1041DC0007930793B8BF049223782E2B0CD16378E6
:1041EC002A2B35D1039B02341A1D1B680392002B1A
:1041FC00B8BF4FF0FF330593DFF8C8A00322504639
:10420C00217800F0F7F940B14023A0EB0A0003FA43
:10421C0000F0049B01340343049314F8011B0622A1
:10422C0025488DF8281000F0E5F9002838D0234BEC
:10423C001BBB039B073323F0070308330393099B32
:10424C003344099367E70C4601200CFB0232A5E7C7
:10425C0000234FF00A0C194601340593204610F840
:10426C00012B303A092A03D9002BC5D00591C3E79D
:10427C00044601230CFB0121F0E703AB00932A4613
:10428C0038460F4B04A9AFF30080421C0646D6D12A
:10429C00AB895B063FF52CAF09981DB0BDE8F08FDC
:1042AC0003AB00932A463846054B04A900F07CF872
:1042BC00EBE700BFB4480008BE480008000000004F
:1042CC001D400008BA4800082DE9F04716469946EB
:1042DC008A680B6907469342B8BF1346336091F85E
:1042EC0043200C46DDF820800AB10133336023688B
:1042FC00990642BF336802333360256815F0060512
:10430C0006D104F1190AE36832689B1AAB4228DC27
:10431C0094F84320131E226818BF012392062DD453
:10432C004946384604F14302C047013020D0236887
:10433C00E56803F00603042B18BF002532684FF024
:10434C000006A36808BFAD1A226908BF25EAE57507
:10435C009342C4BF9B1AED181A34B5421AD10020EF
:10436C0008E00123524649463846C047013003D184
:10437C004FF0FF30BDE8F0870135C4E73020E1187D
:10438C0081F843005A1C94F845102244023382F8F9
:10439C004310C5E70123224649463846C047013041
:1043AC00E6D00136D9E700002DE9FF470C46277E01
:1043BC009146782F80469A460C9904F1430207D80F
:1043CC00622F0AD8002F00F0D980582F00F0A4805B
:1043DC0004F1420684F842703AE0A7F16303152B0E
:1043EC00F6D801A050F823F04D44000861440008B1
:1043FC00DD430008DD430008DD430008DD43000811
:10440C0061440008DD430008DD430008DD4300087B
:10441C00DD4300086F450008914400085145000831
:10442C00DD430008DD43000891450008DD4300082A
:10443C0091440008DD430008DD430008594500089D
:10444C000B6804F142061A1D1B680A6084F842309E
:10445C000123A4E0256808682E0600F104030AD5A0
:10446C0005680B60002D03DA2D236D4284F8433070
:10447C000A235E4819E015F0400F05680B6018BF61
:10448C002DB2EFE70B682568181D0860280601D5CA
:10449C001D6802E06906FBD51D886F2F0CBF082331
:1044AC000A235248002184F843106668002EA8BFE6
:1044BC002168A660A4BF21F0040121600DB9002E73
:1044CC004DD01646B5FBF3F103FB1157C75D06F84B
:1044DC00017D2F46BB420D46F4D9082B0BD1236826
:1044EC00DF0708D5236961689942DEBF302306F8DF
:1044FC00013C06F1FF36921B22614B462146404699
:10450C00CDF800A003AAFFF7DFFE01304CD14FF02D
:10451C00FF3004B0BDE8F087344884F845700E686D
:10452C00236856F8045B1F060E6014D5D90744BFE8
:10453C0043F0200323601DB9236823F0200323607C
:10454C001023AFE7236843F0200323607823284827
:10455C0084F84530E3E75E0648BFADB2E6E71646A1
:10456C00BBE70B6826681D1D60690D6035061B686E
:10457C0001D5186002E07106FBD5188000231646A1
:10458C002361BAE70B681A1D0A601E6800213046C9
:10459C00626800F02FF808B1801B606063682361CB
:1045AC00002384F84330A8E7324649464046236945
:1045BC00D0470130ABD023689B0713D4E068039B32
:1045CC009842B8BF1846A4E70123324649464046F4
:1045DC00D04701309BD00135E36803995B1AAB429D
:1045EC00F2DCEBE7002504F11906F5E7C5480008F5
:1045FC00D6480008034610B5C9B202449342184687
:10460C0001D1002003E0047801338C42F6D110BDB7
:10461C000A44914200F1FF3300D1704710B511F8F4
:10462C00014B914203F8014FF9D110BD884210B5EE
:10463C0001EB020402D98442234607D8431EA1424F
:10464C0008D011F8012B03F8012FF8E701460244BA
:10465C008A4200D110BD13F8014D02F8014DF7E765
:10466C0038B50546002943D051F8043C0C1F002BEB
:10467C00B8BFE41800F0D0F81E4A1368104633B9DE
:10468C00636014602846BDE8384000F0CBB8A34204
:10469C000AD921686218934201BF1A685B685218E4
:1046AC00226063600460EDE71A465B680BB1A342BD
:1046BC00FAD911685018A0420BD120680144501847
:1046CC0083421160DED118685B680144116053604D
:1046DC00D8E702D90C232B60D4E7206821188B4231
:1046EC0001BF19685B680918216063605460C9E7F1
:1046FC0038BD00BF7C010020F8B5CD1C25F00305AA
:10470C0008350C2D38BF0C25002D064601DBA942BF
:10471C0003D90C2333600020F8BD00F07DF821494B
:10472C000A6814469CB9204F3B6823B92146304691
:10473C0000F062F838602946304600F05DF8431C02
:10474C0023D10C233046336000F06CF8E3E7236888
:10475C005B1B17D40B2B03D923601C44256004E08E
:10476C006368A2420CBF0B605360304600F05AF8ED
:10477C0004F10B00231D20F00700C21ACCD01B1A29
:10478C00A350C9E722466468CCE7C41C24F0030498
:10479C00A042E3D0211A304600F02EF80130DDD1D2
:1047AC00CFE700BF7C01002080010020F8B5074650
:1047BC0014460E4621B91146BDE8F840FFF79CBFE0
:1047CC0022B9FFF74DFF25462846F8BD00F030F81A
:1047DC00A0420FD221463846FFF78EFF054600282F
:1047EC00F2D031462246FFF713FF31463846FFF729
:1047FC0037FFE9E73546E7E738B50023054D0446B2
:10480C0008462B60FDF732F8431C02D12B6803B12C
:10481C00236038BD94020020014800F011B800BF9D
:10482C009C020020014800F00CB800BF9C02002044
:10483C0051F8043C181F002BBCBF0B58C018704714
:10484C0070477047F8B500BFF8BC08BC9E4670476F
:0C485C00F8B500BFF8BC08BC9E467047D1
:104868002152202564230D0A00000000214720253D
:1048780064230D0A000000002159202564230D0A35
:104888000000000002030405060708090A0B0C0DC6
:104898000E0F1010000000000000000001020304C9
:1048A800060708090000000001020304232D302B2D
:1048B8002000686C4C006566674546470030313219
:1048C8003334353637383941424344454600303170
:1048D80032333435363738396162636465660000CF
:0448E8003101000892
:0448EC000D010008B2
:1048F00001000000000000000000000000000000B7
:1049000001000000000000000000000000000000A6
:104910000100000000000000000000000000000096
:104920000100000000000000000000000000000086
:1049300001000200200001000008014000080140C1
:1049400000080140000C0140000408002000100095
:104950000004000100080140000C0140000C01406F
:10496000000C0140000C0140000801400A0000005A
:104970002C0100000000000000000000000000000A
:104980002C01000064000000C8000000DC050000ED
:10499000DC050000DC0500000024F400100000002D
:1049A00001000000B800002000000000000000002E
:1049B00000000000000000000000000000000000F7
:1049C00000000000000000000000000000000000E7
:1049D00000000000000000000000000000000000D7
:1049E00000000000000000000000000000000000C7
:1049F00000000000000000000000000000000000B7
:084A00000000000000000000AE
:04000005080018F1E6
:00000001FF
